{
  "contractName": "alt_bn128",
  "abi": [
    {
      "constant": true,
      "inputs": [],
      "name": "q",
      "outputs": [
        {
          "name": "",
          "type": "uint256"
        }
      ],
      "payable": false,
      "stateMutability": "view",
      "type": "function"
    }
  ],
  "bytecode": "0x60606040523415600e57600080fd5b60b08061001c6000396000f300606060405260043610603f576000357c0100000000000000000000000000000000000000000000000000000000900463ffffffff168063fd3ab282146044575b600080fd5b604a6060565b6040518082815260200191505060405180910390f35b7f30644e72e131a029b85045b68181585d2833e84879b9709143e1f593f0000001815600a165627a7a72305820fc83d76e3590f37caa7d9f080c7d5ddb4ae1edf26d53a474778e3f35deed36040029",
  "source": "pragma solidity ^0.4.19;\r\n\r\nlibrary alt_bn128 {\r\n\r\n    uint256 public constant q = 21888242871839275222246405745257275088548364400416034343698204186575808495617;\r\n\r\n    struct G1Point {\r\n        uint256 X;\r\n        uint256 Y;\r\n    }\r\n\r\n    function add(G1Point p1, G1Point p2) internal view returns (G1Point r) {\r\n        uint256[4] memory input;\r\n        input[0] = p1.X;\r\n        input[1] = p1.Y;\r\n        input[2] = p2.X;\r\n        input[3] = p2.Y;\r\n        assembly {\r\n            if iszero(staticcall(not(0), 6, input, 0x80, r, 0x40)) {\r\n                revert(0, 0)\r\n            }\r\n        }\r\n    }\r\n\r\n    function mul(G1Point p, uint256 s) internal view returns (G1Point r) {\r\n        uint256[3] memory input;\r\n        input[0] = p.X;\r\n        input[1] = p.Y;\r\n        input[2] = s;\r\n        assembly {\r\n            if iszero(staticcall(not(0), 7, input, 0x60, r, 0x40)) {\r\n                revert(0, 0)\r\n            }\r\n        }\r\n    }\r\n\r\n    function neg(G1Point p) internal returns (G1Point) {\r\n        uint n = 21888242871839275222246405745257275088696311157297823662689037894645226208583;\r\n        if (p.X == 0 && p.Y == 0)\r\n            return G1Point(0, 0);\r\n        return G1Point(p.X, n - (p.Y % n));\r\n    }\r\n\r\n    function eq(G1Point p1, G1Point p2) internal returns (bool) {\r\n        return p1.X == p2.X && p1.Y == p2.Y;\r\n    }\r\n\r\n    function add(uint256 x, uint256 y) internal pure returns (uint256) {\r\n        return addmod(x, y, q);\r\n    }\r\n\r\n    function mul(uint256 x, uint256 y) internal pure returns (uint256) {\r\n        return mulmod(x, y, q);\r\n    }\r\n\r\n    function inv(uint256 x) internal view returns (uint256) {\r\n        return exp(x, q - 2);\r\n    }\r\n\r\n    function mod(uint256 x) internal pure returns (uint256) {\r\n        return x % q;\r\n    }\r\n\r\n    function sub(uint256 x, uint256 y) internal pure returns (uint256) {\r\n        return x >= y ? x - y : q - y + x;\r\n    }\r\n\r\n    function neg(uint256 x) internal pure returns (uint256) {\r\n        return q - x;\r\n    }\r\n\r\n    function exp(uint256 base, uint256 exponent) internal view returns (uint256) {\r\n        uint256[6] memory input;\r\n        uint256[1] memory output;\r\n        input[0] = 0x20;  // length_of_BASE\r\n        input[1] = 0x20;  // length_of_EXPONENT\r\n        input[2] = 0x20;  // length_of_MODULUS\r\n        input[3] = base;\r\n        input[4] = exponent;\r\n        input[5] = q;\r\n        assembly {\r\n            if iszero(staticcall(not(0), 5, input, 0xc0, output, 0x20)) {\r\n                revert(0, 0)\r\n            }\r\n        }\r\n        return output[0];\r\n    }\r\n}\r\n",
  "sourcePath": "D:\\Projects\\Research\\solidity-range-bulletproof-verifier\\contracts\\alt_bn128.sol",
  "compiler": {
    "name": "solc",
    "version": "0.4.19+commit.c4cbbb05.Emscripten.clang"
  },
  "schemaVersion": "1.0.1",
  "updatedAt": "2018-02-15T09:20:00.257Z"
}