{
  "contractName": "EfficientInnerProductVerifier",
  "abi": [
    {
      "constant": true,
      "inputs": [],
      "name": "n",
      "outputs": [
        {
          "name": "",
          "type": "uint256"
        }
      ],
      "payable": false,
      "stateMutability": "view",
      "type": "function"
    },
    {
      "constant": true,
      "inputs": [
        {
          "name": "",
          "type": "uint256"
        }
      ],
      "name": "hs",
      "outputs": [
        {
          "name": "X",
          "type": "uint256"
        },
        {
          "name": "Y",
          "type": "uint256"
        }
      ],
      "payable": false,
      "stateMutability": "view",
      "type": "function"
    },
    {
      "constant": true,
      "inputs": [],
      "name": "m",
      "outputs": [
        {
          "name": "",
          "type": "uint256"
        }
      ],
      "payable": false,
      "stateMutability": "view",
      "type": "function"
    },
    {
      "constant": true,
      "inputs": [],
      "name": "H",
      "outputs": [
        {
          "name": "X",
          "type": "uint256"
        },
        {
          "name": "Y",
          "type": "uint256"
        }
      ],
      "payable": false,
      "stateMutability": "view",
      "type": "function"
    },
    {
      "constant": true,
      "inputs": [
        {
          "name": "",
          "type": "uint256"
        }
      ],
      "name": "gs",
      "outputs": [
        {
          "name": "X",
          "type": "uint256"
        },
        {
          "name": "Y",
          "type": "uint256"
        }
      ],
      "payable": false,
      "stateMutability": "view",
      "type": "function"
    },
    {
      "inputs": [
        {
          "name": "H_x",
          "type": "uint256"
        },
        {
          "name": "H_y",
          "type": "uint256"
        },
        {
          "name": "gs_coords",
          "type": "uint256[8]"
        },
        {
          "name": "hs_coords",
          "type": "uint256[8]"
        }
      ],
      "payable": false,
      "stateMutability": "nonpayable",
      "type": "constructor"
    },
    {
      "constant": true,
      "inputs": [
        {
          "name": "c_x",
          "type": "uint256"
        },
        {
          "name": "c_y",
          "type": "uint256"
        },
        {
          "name": "ls_x",
          "type": "uint256[2]"
        },
        {
          "name": "ls_y",
          "type": "uint256[2]"
        },
        {
          "name": "rs_x",
          "type": "uint256[2]"
        },
        {
          "name": "rs_y",
          "type": "uint256[2]"
        },
        {
          "name": "A",
          "type": "uint256"
        },
        {
          "name": "B",
          "type": "uint256"
        }
      ],
      "name": "verify",
      "outputs": [
        {
          "name": "",
          "type": "bool"
        }
      ],
      "payable": false,
      "stateMutability": "view",
      "type": "function"
    },
    {
      "constant": true,
      "inputs": [
        {
          "components": [
            {
              "name": "X",
              "type": "uint256"
            },
            {
              "name": "Y",
              "type": "uint256"
            }
          ],
          "name": "c",
          "type": "tuple"
        },
        {
          "name": "ls_x",
          "type": "uint256[2]"
        },
        {
          "name": "ls_y",
          "type": "uint256[2]"
        },
        {
          "name": "rs_x",
          "type": "uint256[2]"
        },
        {
          "name": "rs_y",
          "type": "uint256[2]"
        },
        {
          "name": "A",
          "type": "uint256"
        },
        {
          "name": "B",
          "type": "uint256"
        },
        {
          "components": [
            {
              "name": "X",
              "type": "uint256"
            },
            {
              "name": "Y",
              "type": "uint256"
            }
          ],
          "name": "hs",
          "type": "tuple[4]"
        },
        {
          "components": [
            {
              "name": "X",
              "type": "uint256"
            },
            {
              "name": "Y",
              "type": "uint256"
            }
          ],
          "name": "H",
          "type": "tuple"
        }
      ],
      "name": "verifyWithCustomParams",
      "outputs": [
        {
          "name": "",
          "type": "bool"
        }
      ],
      "payable": false,
      "stateMutability": "view",
      "type": "function"
    }
  ],
  "bytecode": "0x606060405234156200001057600080fd5b60405161024080620017bb833981016040526200003790678000000000000000906200021f565b600060408051908101604052808681526020018581525060106000820151816000015560208201518160010155905050600090505b60048160ff1610156200016b576040805190810160405280848360ff166008811015156200009657fe5b60200201518152602001848360ff16600401600881101515620000b557fe5b602002015181525060008260ff16600481101515620000d057fe5b6002020160008201518160000155602082015181600101559050506040805190810160405280838360ff166008811015156200010857fe5b60200201518152602001838360ff166004016008811015156200012757fe5b602002015181525060088260ff166004811015156200014257fe5b60020201600082015181600001556020820151816001015590505080806001019150506200006c565b505050505062000306565b600082601f830112600081146200018d5762000192565b600080fd5b506008620001aa620001a482620002cf565b62000297565b91508183856020840282011160018114620001c557620001ca565b600080fd5b5060005b83811015620001ff5781620001e4888262000209565b845260208401935060208301925050600181019050620001ce565b5050505092915050565b6000620002178251620002fc565b905092915050565b60008060008061024085870312600181146200023b5762000240565b600080fd5b506000620002518782880162000209565b9450506020620002648782880162000209565b9350506040620002778782880162000176565b9250506101406200028b8782880162000176565b91505092959194509250565b6000604051905081810181811067ffffffffffffffff82111760018114620002bf57620002c4565b600080fd5b508060405250919050565b600067ffffffffffffffff821160018114620002eb57620002f0565b600080fd5b50602082029050919050565b6000819050919050565b6114a580620003166000396000f300606060405260043610610083576000357c0100000000000000000000000000000000000000000000000000000000900463ffffffff16806317e62a3f146100885780632e52d606146100be5780633844923b146100e75780635a2ee0191461011e57806370a5d861146101475780637efe9b7b1461017157806383ec1a49146101a7575b600080fd5b341561009357600080fd5b6100a860046100a3903690611284565b6101de565b6040516100b59190611360565b60405180910390f35b34156100c957600080fd5b6100d161031f565b6040516100de919061137b565b60405180910390f35b34156100f257600080fd5b6101076004610102903690611252565b610324565b604051610115929190611396565b60405180910390f35b341561012957600080fd5b61013161034d565b60405161013e919061137b565b60405180910390f35b341561015257600080fd5b61015a610352565b604051610168929190611396565b60405180910390f35b341561017c57600080fd5b610191600461018c90369061117f565b610364565b60405161019e9190611360565b60405180910390f35b34156101b257600080fd5b6101c760046101c2903690611252565b6108b7565b6040516101d5929190611396565b60405180910390f35b600061031160408051908101604052808b81526020018a815250886002806020026040519081016040528092919082600260200280828437820191505050505088600280602002604051908101604052809291908260026020028082843782019150505050508860028060200260405190810160405280929190826002602002808284378201915050505050886002806020026040519081016040528092919082600260200280828437820191505050505088886008600480602002604051908101604052809291906000905b828210156102e75783826002020160408051908101604052908160008201548152602001600182015481525050815260200190600101906102ab565b50505050601060408051908101604052908160008201548152602001600182015481525050610364565b905098975050505050505050565b600281565b60088160048110151561033357fe5b600202016000915090508060000154908060010154905082565b600481565b60108060000154908060010154905082565b600061036e610d57565b60008060008d8460400181905250600092505b60028360ff16101561056f5760408051908101604052808e8560ff166002811015156103a957fe5b602002015181526020018d8560ff166002811015156103c457fe5b6020020151815250846060018190525060408051908101604052808c8560ff166002811015156103f057fe5b602002015181526020018b8560ff1660028110151561040b57fe5b602002015181525084608001819052506104958460600151600001518560600151602001518660400151600001518760400151602001518860800151600001518960800151602001516040518087815260200186815260200185815260200184815260200183815260200182815260200196505050505050506040518091039020600190046108e0565b8460a00181815250506104ab8460a00151610915565b8460c001818152505061053784604001516105296104ed6104da60028960c0015161094b90919063ffffffff16565b8860800151610a4b90919063ffffffff16565b61051b61050860028a60a0015161094b90919063ffffffff16565b8960600151610a4b90919063ffffffff16565b610acc90919063ffffffff16565b610acc90919063ffffffff16565b84604001819052508360a001518460e001518460ff1660028110151561055957fe5b6020020181815250508280600101935050610381565b8360e00151600060028110151561058257fe5b6020020151846101000151600060048110151561059b57fe5b602002018181525050600192505b60028360ff161015610623576105f98460e001518460ff166002811015156105cd57fe5b602002015185610100015160006004811015156105e657fe5b6020020151610b6e90919063ffffffff16565b846101000151600060048110151561060d57fe5b60200201818152505082806001019350506105a9565b610644846101000151600060048110151561063a57fe5b6020020151610915565b846101000151600060048110151561065857fe5b602002018181525050600092505b6002600481151561067357fe5b048360ff1610156107b557600091505b6004838360ff1660019060020a020160ff1610156107aa578160ff1660019060020a0283019050836101a001518160ff166004811015156106c057fe5b6020020151151561079f5761071c8460e001518360ff166001600203036002811015156106e957fe5b60200201518560e001518460ff1660016002030360028110151561070957fe5b6020020151610b6e90919063ffffffff16565b846101c0018181525050610758846101c001518561010001518560ff1660048110151561074557fe5b6020020151610b6e90919063ffffffff16565b8461010001518260ff1660048110151561076e57fe5b6020020181815250506001846101a001518260ff1660048110151561078f57fe5b6020020190151590811515815250505b816001019150610683565b826001019250610666565b6107c3846101000151610b9c565b8461012001819052506107db84610100015188610c93565b8461014001819052506107f7888a610b6e90919063ffffffff16565b8461016001818152505061086b61081c85610160015188610a4b90919063ffffffff16565b61085d6108378b886101400151610a4b90919063ffffffff16565b61084f8d896101200151610a4b90919063ffffffff16565b610acc90919063ffffffff16565b610acc90919063ffffffff16565b846101800181905250836040015160000151846101800151600001511480156108a4575083604001516020015184610180015160200151145b9450505050509998505050505050505050565b6000816004811015156108c657fe5b600202016000915090508060000154908060010154905082565b60007f30644e72e131a029b85045b68181585d2833e84879b9709143e1f593f00000018281151561090d57fe5b069050919050565b60006109448260027f30644e72e131a029b85045b68181585d2833e84879b9709143e1f593f00000010361094b565b9050919050565b6000610955610e10565b61095d610e38565b602082600060068110151561096e57fe5b602002018181525050602082600160068110151561098857fe5b60200201818152505060208260026006811015156109a257fe5b602002018181525050848260036006811015156109bb57fe5b602002018181525050838260046006811015156109d457fe5b6020020181815250507f30644e72e131a029b85045b68181585d2833e84879b9709143e1f593f0000001826005600681101515610a0d57fe5b60200201818152505060208160c0846005600019fa1515610a2d57600080fd5b806000600181101515610a3c57fe5b60200201519250505092915050565b610a53610e60565b610a5b610e7a565b8360000151816000600381101515610a6f57fe5b6020020181815250508360200151816001600381101515610a8c57fe5b60200201818152505082816002600381101515610aa557fe5b6020020181815250506040826060836007600019fa1515610ac557600080fd5b5092915050565b610ad4610e60565b610adc610ea2565b8360000151816000600481101515610af057fe5b6020020181815250508360200151816001600481101515610b0d57fe5b6020020181815250508260000151816002600481101515610b2a57fe5b6020020181815250508260200151816003600481101515610b4757fe5b6020020181815250506040826080836006600019fa1515610b6757600080fd5b5092915050565b60007f30644e72e131a029b85045b68181585d2833e84879b9709143e1f593f0000001828409905092915050565b610ba4610e60565b6000610bfd836000600481101515610bb857fe5b6020020151600080600481101515610bcc57fe5b6002020160408051908101604052908160008201548152602001600182015481525050610a4b90919063ffffffff16565b9150600190505b60048160ff161015610c8d57610c7e610c6f848360ff16600481101515610c2757fe5b602002015160008460ff16600481101515610c3e57fe5b6002020160408051908101604052908160008201548152602001600182015481525050610a4b90919063ffffffff16565b83610acc90919063ffffffff16565b91508080600101915050610c04565b50919050565b610c9b610e60565b6000610cd9846001600403600481101515610cb257fe5b6020020151846000600481101515610cc657fe5b6020020151610a4b90919063ffffffff16565b9150600190505b60048160ff161015610d5057610d41610d32858360ff16600160040303600481101515610d0957fe5b6020020151858460ff16600481101515610d1f57fe5b6020020151610a4b90919063ffffffff16565b83610acc90919063ffffffff16565b91508080600101915050610ce0565b5092915050565b61048060405190810160405280610d6c610eca565b8152602001610d79610ef9565b8152602001610d86610ef9565b8152602001610d93610ef9565b8152602001610da0610ef9565b81526020016000815260200160008152602001610dbb610f13565b8152602001610dc8610f3a565b8152602001610dd5610ef9565b8152602001610de2610ef9565b815260200160008152602001610df6610ef9565b8152602001610e03610f62565b8152602001600081525090565b60c0604051908101604052806006905b6000815260200190600190039081610e205790505090565b6020604051908101604052806001905b6000815260200190600190039081610e485790505090565b604080519081016040528060008152602001600081525090565b6060604051908101604052806003905b6000815260200190600190039081610e8a5790505090565b6080604051908101604052806004905b6000815260200190600190039081610eb25790505090565b610100604051908101604052806004905b610ee3610ef9565b815260200190600190039081610edb5790505090565b604080519081016040528060008152602001600081525090565b60408051908101604052806002905b6000815260200190600190039081610f225790505090565b6080604051908101604052806004905b6000815260200190600190039081610f4a5790505090565b6080604051908101604052806004905b60001515815260200190600190039081610f725790505090565b600082601f83011260008114610fa157610fa6565b600080fd5b506004610fba610fb5826113f5565b6113bf565b91508183856040840282011160018114610fd357610fd8565b600080fd5b5060005b838110156110095781610fef88826110c1565b845260208401935060408301925050600181019050610fdc565b5050505092915050565b60008190508260206002028201116001811461102e57611033565b600080fd5b5092915050565b600082601f8301126000811461104f57611054565b600080fd5b50600261106861106382611420565b6113bf565b9150818385602084028201116001811461108157611086565b600080fd5b5060005b838110156110b7578161109d888261116b565b84526020840193506020830192505060018101905061108a565b5050505092915050565b6000604082840312600181146110d6576110db565b600080fd5b506110e660406113bf565b905060006110f68482850161116b565b600083015250602061110a8482850161116b565b60208301525092915050565b60006040828403126001811461112b57611130565b600080fd5b5061113b60406113bf565b9050600061114b8482850161116b565b600083015250602061115f8482850161116b565b60208301525092915050565b60006111778235611461565b905092915050565b60008060008060008060008060006102c08a8c0312600181146111a1576111a6565b600080fd5b5060006111b58c828d01611116565b99505060406111c68c828d0161103a565b98505060806111d78c828d0161103a565b97505060c06111e88c828d0161103a565b9650506101006111fa8c828d0161103a565b95505061014061120c8c828d0161116b565b94505061016061121e8c828d0161116b565b9350506101806112308c828d01610f8c565b9250506102806112428c828d01611116565b9150509295985092959850929598565b6000602082840312600181146112675761126c565b600080fd5b50600061127b8482850161116b565b91505092915050565b600080600080600080600080610180898b0312600181146112a4576112a9565b600080fd5b5060006112b88b828c0161116b565b98505060206112c98b828c0161116b565b97505060406112da8b828c01611013565b96505060806112eb8b828c01611013565b95505060c06112fc8b828c01611013565b94505061010061130e8b828c01611013565b9350506101406113208b828c0161116b565b9250506101606113328b828c0161116b565b9150509295985092959890939650565b61134b8161144b565b82525050565b61135a81611457565b82525050565b60006020820190506113756000830184611342565b92915050565b60006020820190506113906000830184611351565b92915050565b60006040820190506113ab6000830185611351565b6113b86020830184611351565b9392505050565b6000604051905081810181811067ffffffffffffffff821117600181146113e5576113ea565b600080fd5b508060405250919050565b600067ffffffffffffffff82116001811461140f57611414565b600080fd5b50602082029050919050565b600067ffffffffffffffff82116001811461143a5761143f565b600080fd5b50602082029050919050565b60008115159050919050565b6000819050919050565b60008190509190505600a265627a7a72305820359fa3797e21ad6b016ec7d3be9636b3648bf4088718663e12bfdca7abf24efb6c6578706572696d656e74616cf50037",
  "source": "pragma solidity ^0.4.19;\r\npragma experimental ABIEncoderV2;\r\n\r\nimport \"./alt_bn128.sol\";\r\n\r\ncontract EfficientInnerProductVerifier {\r\n    using alt_bn128 for uint256;\r\n    using alt_bn128 for alt_bn128.G1Point;\r\n\r\n    uint256 public constant m = 4;\r\n    uint256 public constant n = 2;\r\n\r\n    alt_bn128.G1Point[m] public gs;\r\n    alt_bn128.G1Point[m] public hs;\r\n    alt_bn128.G1Point public H;\r\n\r\n    function EfficientInnerProductVerifier(\r\n        uint256 H_x,\r\n        uint256 H_y,\r\n        uint256[2 * m] gs_coords,\r\n        uint256[2 * m] hs_coords\r\n    ) public {\r\n        H = alt_bn128.G1Point(H_x, H_y);\r\n        for (uint8 i = 0; i < m; i++) {\r\n            gs[i] = alt_bn128.G1Point(gs_coords[i], gs_coords[m + i]);\r\n            hs[i] = alt_bn128.G1Point(hs_coords[i], hs_coords[m + i]);\r\n        }\r\n    }\r\n\r\n    struct Board {\r\n        alt_bn128.G1Point[m] hs;\r\n        alt_bn128.G1Point H;\r\n\r\n        alt_bn128.G1Point c;\r\n        alt_bn128.G1Point l;\r\n        alt_bn128.G1Point r;\r\n        uint256 x;\r\n        uint256 xInv;\r\n        uint256[n] challenges;\r\n        uint256[m] otherExponents;\r\n        alt_bn128.G1Point g;\r\n        alt_bn128.G1Point h;\r\n        uint256 prod;\r\n        alt_bn128.G1Point cProof;\r\n        bool[m] bitSet;\r\n        uint256 z;\r\n    }\r\n\r\n    function verify(\r\n        uint256 c_x,\r\n        uint256 c_y,\r\n        uint256[n] ls_x,\r\n        uint256[n] ls_y,\r\n        uint256[n] rs_x,\r\n        uint256[n] rs_y,\r\n        uint256 A,\r\n        uint256 B\r\n    ) external view returns (bool) {\r\n        return verifyWithCustomParams(alt_bn128.G1Point(c_x, c_y), ls_x, ls_y, rs_x, rs_y, A, B, hs, H);\r\n    }\r\n\r\n    function verifyWithCustomParams(\r\n        alt_bn128.G1Point c,\r\n        uint256[n] ls_x,\r\n        uint256[n] ls_y,\r\n        uint256[n] rs_x,\r\n        uint256[n] rs_y,\r\n        uint256 A,\r\n        uint256 B,\r\n        alt_bn128.G1Point[m] hs,\r\n        alt_bn128.G1Point H\r\n    ) public view returns (bool) {\r\n        Board memory b;\r\n        b.c = c;\r\n        for (uint8 i = 0; i < n; i++) {\r\n            b.l = alt_bn128.G1Point(ls_x[i], ls_y[i]);\r\n            b.r = alt_bn128.G1Point(rs_x[i], rs_y[i]);\r\n            b.x = uint256(keccak256(b.l.X, b.l.Y, b.c.X, b.c.Y, b.r.X, b.r.Y)).mod();\r\n            b.xInv = b.x.inv();\r\n            b.c = b.l.mul(b.x.exp(2))\r\n                .add(b.r.mul(b.xInv.exp(2)))\r\n                .add(b.c);\r\n            b.challenges[i] = b.x;\r\n        }\r\n\r\n        b.otherExponents[0] = b.challenges[0];\r\n        for (i = 1; i < n; i++) {\r\n            b.otherExponents[0] = b.otherExponents[0].mul(b.challenges[i]);\r\n        }\r\n        b.otherExponents[0] = b.otherExponents[0].inv();\r\n        for (i = 0; i < m/2; ++i) {\r\n            for (uint8 j = 0; (1 << j) + i < m; ++j) {\r\n                uint8 i1 = i + (1 << j);\r\n                if (!b.bitSet[i1]) {\r\n                    b.z = b.challenges[n-1-j].mul(b.challenges[n-1-j]);\r\n                    b.otherExponents[i1] = b.otherExponents[i].mul(b.z);\r\n                    b.bitSet[i1] = true;\r\n                }\r\n            }\r\n        }\r\n\r\n        b.g = multiExpGs(b.otherExponents);\r\n        b.h = multiExpHsInversed(b.otherExponents, hs);\r\n        b.prod = A.mul(B);\r\n        b.cProof = b.g.mul(A)\r\n            .add(b.h.mul(B))\r\n            .add(H.mul(b.prod));\r\n        return b.cProof.X == b.c.X && b.cProof.Y == b.c.Y;\r\n    }\r\n\r\n    function multiExpGs(uint256[m] ss) internal view returns (alt_bn128.G1Point g) {\r\n        g = gs[0].mul(ss[0]);\r\n        for (uint8 i = 1; i < m; i++) {\r\n            g = g.add(gs[i].mul(ss[i]));\r\n        }\r\n    }\r\n\r\n    function multiExpHsInversed(uint256[m] ss, alt_bn128.G1Point[m] hs) internal view returns (alt_bn128.G1Point h) {\r\n        h = hs[0].mul(ss[m-1]);\r\n        for (uint8 i = 1; i < m; i++) {\r\n            h = h.add(hs[i].mul(ss[m-1-i]));\r\n        }\r\n    }\r\n}\r\n",
  "sourcePath": "D:\\Projects\\Research\\solidity-range-bulletproof-verifier\\contracts\\EfficientInnerProductVerifier.sol",
  "compiler": {
    "name": "solc",
    "version": "0.4.19+commit.c4cbbb05.Emscripten.clang"
  },
  "schemaVersion": "1.0.1",
  "updatedAt": "2018-02-15T09:20:00.234Z"
}