{
  "contractName": "RangeProofVerifier",
  "abi": [
    {
      "constant": true,
      "inputs": [],
      "name": "ipVerifier",
      "outputs": [
        {
          "name": "",
          "type": "address"
        }
      ],
      "payable": false,
      "stateMutability": "view",
      "type": "function"
    },
    {
      "constant": true,
      "inputs": [],
      "name": "peddersenBaseH",
      "outputs": [
        {
          "name": "X",
          "type": "uint256"
        },
        {
          "name": "Y",
          "type": "uint256"
        }
      ],
      "payable": false,
      "stateMutability": "view",
      "type": "function"
    },
    {
      "constant": true,
      "inputs": [],
      "name": "n",
      "outputs": [
        {
          "name": "",
          "type": "uint256"
        }
      ],
      "payable": false,
      "stateMutability": "view",
      "type": "function"
    },
    {
      "constant": true,
      "inputs": [
        {
          "name": "",
          "type": "uint256"
        }
      ],
      "name": "hs",
      "outputs": [
        {
          "name": "X",
          "type": "uint256"
        },
        {
          "name": "Y",
          "type": "uint256"
        }
      ],
      "payable": false,
      "stateMutability": "view",
      "type": "function"
    },
    {
      "constant": true,
      "inputs": [],
      "name": "m",
      "outputs": [
        {
          "name": "",
          "type": "uint256"
        }
      ],
      "payable": false,
      "stateMutability": "view",
      "type": "function"
    },
    {
      "constant": true,
      "inputs": [],
      "name": "peddersenBaseG",
      "outputs": [
        {
          "name": "X",
          "type": "uint256"
        },
        {
          "name": "Y",
          "type": "uint256"
        }
      ],
      "payable": false,
      "stateMutability": "view",
      "type": "function"
    },
    {
      "constant": true,
      "inputs": [
        {
          "name": "",
          "type": "uint256"
        }
      ],
      "name": "gs",
      "outputs": [
        {
          "name": "X",
          "type": "uint256"
        },
        {
          "name": "Y",
          "type": "uint256"
        }
      ],
      "payable": false,
      "stateMutability": "view",
      "type": "function"
    },
    {
      "inputs": [
        {
          "name": "coords",
          "type": "uint256[4]"
        },
        {
          "name": "gs_coords",
          "type": "uint256[8]"
        },
        {
          "name": "hs_coords",
          "type": "uint256[8]"
        },
        {
          "name": "_ipVerifier",
          "type": "address"
        }
      ],
      "payable": false,
      "stateMutability": "nonpayable",
      "type": "constructor"
    },
    {
      "anonymous": false,
      "inputs": [
        {
          "indexed": false,
          "name": "x",
          "type": "uint256"
        },
        {
          "indexed": false,
          "name": "y",
          "type": "uint256"
        }
      ],
      "name": "Proof",
      "type": "event"
    },
    {
      "constant": true,
      "inputs": [
        {
          "name": "coords",
          "type": "uint256[10]"
        },
        {
          "name": "scalars",
          "type": "uint256[5]"
        },
        {
          "name": "ls_coords",
          "type": "uint256[]"
        },
        {
          "name": "rs_coords",
          "type": "uint256[]"
        }
      ],
      "name": "verify",
      "outputs": [
        {
          "name": "",
          "type": "bool"
        }
      ],
      "payable": false,
      "stateMutability": "view",
      "type": "function"
    }
  ],
  "bytecode": "0x6060604052620000246002620002686401000000000262000e38176401000000009004565b60149060046200003692919062000354565b5034156200004357600080fd5b6040516102a08062002465833981016040526200006a90678000000000000000906200053c565b600060408051908101604052808660006004811015156200008757fe5b60200201518152602001866001600481101515620000a157fe5b6020020151815250601060008201518160000155602082015181600101559050506040805190810160405280866002600481101515620000dd57fe5b60200201518152602001866003600481101515620000f757fe5b602002015181525060126000820151816000015560208201518160010155905050600090505b60048160ff1610156200021c576040805190810160405280858360ff166008811015156200014757fe5b60200201518152602001858360ff166004016008811015156200016657fe5b602002015181525060008260ff166004811015156200018157fe5b6002020160008201518160000155602082015181600101559050506040805190810160405280848360ff16600881101515620001b957fe5b60200201518152602001848360ff16600401600881101515620001d857fe5b602002015181525060088260ff16600481101515620001f357fe5b60020201600082015181600001556020820151816001015590505080806001019150506200011d565b81601860006101000a81548173ffffffffffffffffffffffffffffffffffffffff021916908373ffffffffffffffffffffffffffffffffffffffff160217905550505050505062000685565b6200027262000399565b600060018260006004811015156200028657fe5b60200201818152505082826001600481101515620002a057fe5b602002018181525050600290505b60048160ff1610156200032057620002f783836001840360ff16600481101515620002d557fe5b6020020151620003266401000000000262000ede179091906401000000009004565b828260ff166004811015156200030957fe5b6020020181815250508080600101915050620002ae565b50919050565b60007f30644e72e131a029b85045b68181585d2833e84879b9709143e1f593f0000001828409905092915050565b826004810192821562000386579160200282015b828111156200038557825182559160200191906001019062000368565b5b509050620003959190620003c2565b5090565b6080604051908101604052806004905b6000815260200190600190039081620003a95790505090565b620003e791905b80821115620003e3576000816000905550600101620003c9565b5090565b90565b600082601f83011260008114620004015762000406565b600080fd5b5060046200041e6200041882620005ed565b620005b5565b9150818385602084028201116001811462000439576200043e565b600080fd5b5060005b8381101562000473578162000458888262000526565b84526020840193506020830192505060018101905062000442565b5050505092915050565b600082601f83011260008114620004945762000499565b600080fd5b506008620004b1620004ab826200061a565b620005b5565b91508183856020840282011160018114620004cc57620004d1565b600080fd5b5060005b83811015620005065781620004eb888262000526565b845260208401935060208301925050600181019050620004d5565b5050505092915050565b60006200051e825162000667565b905092915050565b60006200053482516200067b565b905092915050565b6000806000806102a0858703126001811462000558576200055d565b600080fd5b5060006200056e87828801620003ea565b945050608062000581878288016200047d565b93505061018062000595878288016200047d565b925050610280620005a98782880162000510565b91505092959194509250565b6000604051905081810181811067ffffffffffffffff82111760018114620005dd57620005e2565b600080fd5b508060405250919050565b600067ffffffffffffffff82116001811462000609576200060e565b600080fd5b50602082029050919050565b600067ffffffffffffffff82116001811462000636576200063b565b600080fd5b50602082029050919050565b600073ffffffffffffffffffffffffffffffffffffffff82169050919050565b6000620006748262000647565b9050919050565b6000819050919050565b611dd080620006956000396000f30060606040526004361061008e576000357c0100000000000000000000000000000000000000000000000000000000900463ffffffff16806308eb1d871461009357806326ff9c68146100c957806327cb3637146100f25780632e52d6061461011c5780633844923b146101455780635a2ee0191461017c5780636a5ff853146101a557806383ec1a49146101cf575b600080fd5b341561009e57600080fd5b6100b360046100ae903690611a17565b610206565b6040516100c09190611bf5565b60405180910390f35b34156100d457600080fd5b6100dc61050e565b6040516100e99190611c10565b60405180910390f35b34156100fd57600080fd5b610105610534565b604051610113929190611cd7565b60405180910390f35b341561012757600080fd5b61012f610546565b60405161013c9190611cbc565b60405180910390f35b341561015057600080fd5b6101656004610160903690611ad1565b61054b565b604051610173929190611cd7565b60405180910390f35b341561018757600080fd5b61018f610574565b60405161019c9190611cbc565b60405180910390f35b34156101b057600080fd5b6101b8610579565b6040516101c6929190611cd7565b60405180910390f35b34156101da57600080fd5b6101ef60046101ea903690611ad1565b61058b565b6040516101fd929190611cd7565b60405180910390f35b600061021061167f565b6102186116d6565b6102206116f0565b600060408051908101604052808c6000600a8110151561023c57fe5b602002013581526020018c6001600a8110151561025557fe5b6020020135815250925060408051908101604052808c6002600a8110151561027957fe5b602002013581526020018c6003600a8110151561029257fe5b6020020135815250846000018190525060408051908101604052808c6004600a811015156102bc57fe5b602002013581526020018c6005600a811015156102d557fe5b60200201358152508460200181905250604080519081016040528060408051908101604052808e6006600a8110151561030a57fe5b602002013581526020018e6007600a8110151561032357fe5b6020020135815250815260200160408051908101604052808e6008600a8110151561034a57fe5b602002013581526020018e6009600a8110151561036357fe5b6020020135815250815250846040018190525089600060058110151561038557fe5b60200201358460600181815250508960016005811015156103a257fe5b60200201358460800181815250508960026005811015156103bf57fe5b60200201358460a0018181525050818460c00181905250600090505b60028160ff1610156104ba5760408051908101604052808a8a8460ff16818110151561040357fe5b9050602002013581526020018a8a8460ff16600201818110151561042357fe5b9050602002013581525082600001518260ff1660028110151561044257fe5b6020020181905250604080519081016040528088888460ff16818110151561046657fe5b90506020020135815260200188888460ff16600201818110151561048657fe5b9050602002013581525082602001518260ff166002811015156104a557fe5b602002018190525080806001019150506103db565b8960036005811015156104c957fe5b60200201358260400181815250508960046005811015156104e657fe5b60200201358260600181815250506104fe83856105b4565b9450505050509695505050505050565b601860009054906101000a900473ffffffffffffffffffffffffffffffffffffffff1681565b60128060000154908060010154905082565b600281565b60088160048110151561055a57fe5b600202016000915090508060000154908060010154905082565b600481565b60108060000154908060010154905082565b60008160048110151561059a57fe5b600202016000915090508060000154908060010154905082565b60006105be611726565b6105c66117b3565b6105ce6117e2565b610640866000015187602001518760000151600001518860000151602001518960200151600001518a6020015160200151604051808781526020018681526020018581526020018481526020018381526020018281526020019650505050505050604051809103902060019004610e03565b8360000181815250506106568360000151610e38565b8360200181905250610684836000015160405180828152602001915050604051809103902060019004610e03565b8360400181815250506106a883604001518460400151610ede90919063ffffffff16565b8360600181815250506106cc83604001518460600151610ede90919063ffffffff16565b8360800181815250506107206014600480602002604051908101604052809291908260048015610711576020028201915b8154815260200190600101908083116106fd575b50505050508460600151610f0c565b8360a001819052506107ce8560400151600060028110151561073e57fe5b6020020151600001518660400151600060028110151561075a57fe5b6020020151602001518760400151600160028110151561077657fe5b6020020151600001518860400151600160028110151561079257fe5b60200201516020015160405180858152602001848152602001838152602001828152602001945050505050604051809103902060019004610e03565b8360c00181815250506108566108118660600151601260408051908101604052908160008201548152602001600182015481525050610f7c90919063ffffffff16565b6108488760a00151601060408051908101604052908160008201548152602001600182015481525050610f7c90919063ffffffff16565b610ffd90919063ffffffff16565b8360e001819052506108d96108928460800151610884600460020a8760800151610ede90919063ffffffff16565b61109f90919063ffffffff16565b6108cb6108b08660600151876040015161109f90919063ffffffff16565b6108bd87602001516110df565b610ede90919063ffffffff16565b61109f90919063ffffffff16565b8361010001818152505061096661092a6109048560c001518660c00151610ede90919063ffffffff16565b8760400151600160028110151561091757fe5b6020020151610f7c90919063ffffffff16565b6109588560c001518860400151600060028110151561094557fe5b6020020151610f7c90919063ffffffff16565b610ffd90919063ffffffff16565b83610120018190525061099d610989846060015188610f7c90919063ffffffff16565b846101200151610ffd90919063ffffffff16565b8361012001819052506109f56109e1846101000151601060408051908101604052908160008201548152602001600182015481525050610f7c90919063ffffffff16565b846101200151610ffd90919063ffffffff16565b836101200181905250610a1a8360e0015184610120015161113090919063ffffffff16565b1515610a295760009350610dfa565b610a67856060015186608001518760a00151604051808481526020018381526020018281526020019350505050604051809103902060019004610e03565b83610140018181525050610aa9836101400151601060408051908101604052908160008201548152602001600182015481525050610f7c90919063ffffffff16565b836101600181905250610b186008600480602002604051908101604052809291906000905b82821015610b0a578382600202016040805190810160405290816000820154815260200160018201548152505081526020019060010190610ace565b505050508460200151611158565b9150610b39610b2f84602001518560400151610f0c565b8460a001516111e4565b9050610b6c610b598460c001518760200151610f7c90919063ffffffff16565b8660000151610ffd90919063ffffffff16565b836101800181905250610c0b610bf7610b888560400151611269565b610be96000600480602002604051908101604052809291906000905b82821015610be0578382600202016040805190810160405290816000820154815260200160018201548152505081526020019060010190610ba4565b50505050611295565b610f7c90919063ffffffff16565b846101800151610ffd90919063ffffffff16565b836101800181905250610c35610c218383611303565b846101800151610ffd90919063ffffffff16565b836101800181905250610c94610c80610c7b8760800151601260408051908101604052908160008201548152602001600182015481525050610f7c90919063ffffffff16565b6113be565b846101800151610ffd90919063ffffffff16565b836101800181905250610cd0610cbc8660a00151856101600151610f7c90919063ffffffff16565b846101800151610ffd90919063ffffffff16565b836101800181905250601860009054906101000a900473ffffffffffffffffffffffffffffffffffffffff1673ffffffffffffffffffffffffffffffffffffffff16637efe9b7b846101800151610d2e8860c0015160000151611459565b610d3f8960c00151600001516114ba565b610d508a60c0015160200151611459565b610d618b60c00151602001516114ba565b8b60c00151604001518c60c00151606001518a8c61016001516000604051602001526040518a63ffffffff167c0100000000000000000000000000000000000000000000000000000000028152600401610dc399989796959493929190611c2b565b602060405180830381600087803b1515610ddc57600080fd5b6102c65a03f11515610ded57600080fd5b5050506040518051905093505b50505092915050565b60007f30644e72e131a029b85045b68181585d2833e84879b9709143e1f593f000000182811515610e3057fe5b069050919050565b610e406117e2565b60006001826000600481101515610e5357fe5b60200201818152505082826001600481101515610e6c57fe5b602002018181525050600290505b60048160ff161015610ed857610eb183836001840360ff16600481101515610e9e57fe5b6020020151610ede90919063ffffffff16565b828260ff16600481101515610ec257fe5b6020020181815250508080600101915050610e7a565b50919050565b60007f30644e72e131a029b85045b68181585d2833e84879b9709143e1f593f0000001828409905092915050565b610f146117e2565b60008090505b60048160ff161015610f7557610f4e83858360ff16600481101515610f3b57fe5b6020020151610ede90919063ffffffff16565b828260ff16600481101515610f5f57fe5b6020020181815250508080600101915050610f1a565b5092915050565b610f846116d6565b610f8c61180a565b8360000151816000600381101515610fa057fe5b6020020181815250508360200151816001600381101515610fbd57fe5b60200201818152505082816002600381101515610fd657fe5b6020020181815250506040826060836007600019fa1515610ff657600080fd5b5092915050565b6110056116d6565b61100d6117e2565b836000015181600060048110151561102157fe5b602002018181525050836020015181600160048110151561103e57fe5b602002018181525050826000015181600260048110151561105b57fe5b602002018181525050826020015181600360048110151561107857fe5b6020020181815250506040826080836006600019fa151561109857600080fd5b5092915050565b6000818310156110d35782827f30644e72e131a029b85045b68181585d2833e84879b9709143e1f593f000000103016110d7565b8183035b905092915050565b600080600090505b60048160ff16101561112a5761111b838260ff1660048110151561110757fe5b60200201518361151b90919063ffffffff16565b915080806001019150506110e7565b50919050565b600081600001518360000151148015611150575081602001518360200151145b905092915050565b6111606117b3565b60008090505b60048160ff1610156111dd576111b7611193848360ff1660048110151561118957fe5b6020020151611549565b858360ff166004811015156111a457fe5b6020020151610f7c90919063ffffffff16565b828260ff166004811015156111c857fe5b60200201819052508080600101915050611166565b5092915050565b6111ec6117e2565b60008090505b60048160ff1610156112625761123b838260ff1660048110151561121257fe5b6020020151858360ff1660048110151561122857fe5b602002015161151b90919063ffffffff16565b828260ff1660048110151561124c57fe5b60200201818152505080806001019150506111f2565b5092915050565b6000817f30644e72e131a029b85045b68181585d2833e84879b9709143e1f593f0000001039050919050565b61129d6116d6565b60008260006004811015156112ae57fe5b60200201519150600190505b60048160ff1610156112fd576112ee838260ff166004811015156112da57fe5b602002015183610ffd90919063ffffffff16565b915080806001019150506112ba565b50919050565b61130b6116d6565b600061134683600060048110151561131f57fe5b602002015185600060048110151561133357fe5b6020020151610f7c90919063ffffffff16565b9150600190505b60048160ff1610156113b7576113a8611399848360ff1660048110151561137057fe5b6020020151868460ff1660048110151561138657fe5b6020020151610f7c90919063ffffffff16565b83610ffd90919063ffffffff16565b9150808060010191505061134d565b5092915050565b6113c66116d6565b60007f30644e72e131a029b85045b68181585d97816a916871ca8d3c208c16d87cfd47905060008360000151148015611403575060008360200151145b156114265760408051908101604052806000815260200160008152509150611453565b60408051908101604052808460000151815260200182856020015181151561144a57fe5b06830381525091505b50919050565b611461611832565b60008090505b60028160ff1610156114b457828160ff1660028110151561148457fe5b602002015160000151828260ff1660028110151561149e57fe5b6020020181815250508080600101915050611467565b50919050565b6114c2611832565b60008090505b60028160ff16101561151557828160ff166002811015156114e557fe5b602002015160200151828260ff166002811015156114ff57fe5b60200201818152505080806001019150506114c8565b50919050565b60007f30644e72e131a029b85045b68181585d2833e84879b9709143e1f593f0000001828408905092915050565b60006115788260027f30644e72e131a029b85045b68181585d2833e84879b9709143e1f593f00000010361157f565b9050919050565b6000611589611859565b611591611881565b60208260006006811015156115a257fe5b60200201818152505060208260016006811015156115bc57fe5b60200201818152505060208260026006811015156115d657fe5b602002018181525050848260036006811015156115ef57fe5b6020020181815250508382600460068110151561160857fe5b6020020181815250507f30644e72e131a029b85045b68181585d2833e84879b9709143e1f593f000000182600560068110151561164157fe5b60200201818152505060208160c0846005600019fa151561166157600080fd5b80600060018110151561167057fe5b60200201519250505092915050565b6102a0604051908101604052806116946118a9565b81526020016116a16118a9565b81526020016116ae6118c3565b81526020016000815260200160008152602001600081526020016116d06118f1565b81525090565b604080519081016040528060008152602001600081525090565b610140604051908101604052806117056118c3565b81526020016117126118c3565b815260200160008152602001600081525090565b6102e06040519081016040528060008152602001611742611927565b8152602001600081526020016000815260200160008152602001611764611927565b8152602001600081526020016117786118a9565b81526020016000815260200161178c6118a9565b8152602001600081526020016117a06118a9565b81526020016117ad6118a9565b81525090565b610100604051908101604052806004905b6117cc6118a9565b8152602001906001900390816117c45790505090565b6080604051908101604052806004905b60008152602001906001900390816117f25790505090565b6060604051908101604052806003905b600081526020019060019003908161181a5790505090565b60408051908101604052806002905b60008152602001906001900390816118415790505090565b60c0604051908101604052806006905b60008152602001906001900390816118695790505090565b6020604051908101604052806001905b60008152602001906001900390816118915790505090565b604080519081016040528060008152602001600081525090565b6080604051908101604052806002905b6118db6118a9565b8152602001906001900390816118d35790505090565b610140604051908101604052806119066118c3565b81526020016119136118c3565b815260200160008152602001600081525090565b6080604051908101604052806004905b60008152602001906001900390816119375790505090565b6000819050826020600a028201116001811461196a5761196f565b600080fd5b5092915050565b60008190508260206005028201116001811461199157611996565b600080fd5b5092915050565b60008083601f840112600081146119b3576119b8565b600080fd5b508235905067ffffffffffffffff8111600181146119d5576119da565b600080fd5b506020830191508360208202830111600181146119f6576119fb565b600080fd5b509250929050565b6000611a0f8235611d7a565b905092915050565b6000806000806000806102208789031260018114611a3457611a39565b600080fd5b506000611a4889828a0161194f565b965050610140611a5a89828a01611976565b9550506101e087013567ffffffffffffffff811160018114611a7b57611a80565b600080fd5b50611a8d89828a0161199d565b945094505061020087013567ffffffffffffffff811160018114611ab057611ab5565b600080fd5b50611ac289828a0161199d565b92509250509295509295509295565b600060208284031260018114611ae657611aeb565b600080fd5b506000611afa84828501611a03565b91505092915050565b611b0c81611d14565b611b1582611d00565b60005b82811015611b4757611b2b858351611bb7565b611b3482611d2a565b9150604085019450600181019050611b18565b5050505050565b611b5781611d1f565b611b6082611d0a565b60005b82811015611b9257611b76858351611be6565b611b7f82611d37565b9150602085019450600181019050611b63565b5050505050565b611ba281611d64565b82525050565b611bb181611d84565b82525050565b604082016000820151611bcd6000850182611be6565b506020820151611be06020850182611be6565b50505050565b611bef81611d70565b82525050565b6000602082019050611c0a6000830184611b99565b92915050565b6000602082019050611c256000830184611ba8565b92915050565b60006102c082019050611c41600083018c611bb7565b611c4e604083018b611b4e565b611c5b608083018a611b4e565b611c6860c0830189611b4e565b611c76610100830188611b4e565b611c84610140830187611be6565b611c92610160830186611be6565b611ca0610180830185611b03565b611cae610280830184611bb7565b9a9950505050505050505050565b6000602082019050611cd16000830184611be6565b92915050565b6000604082019050611cec6000830185611be6565b611cf96020830184611be6565b9392505050565b6000819050919050565b6000819050919050565b600060049050919050565b600060029050919050565b6000602082019050919050565b6000602082019050919050565b600073ffffffffffffffffffffffffffffffffffffffff82169050919050565b60008115159050919050565b6000819050919050565b6000819050919050565b6000611d8f82611d44565b90509190505600a265627a7a72305820c848092aaf88972de60b201eced9e1c1a4dee07d144994327e199abd04a47e9a6c6578706572696d656e74616cf50037",
  "source": "pragma solidity ^0.4.19;\r\npragma experimental ABIEncoderV2;\r\n\r\nimport \"./EfficientInnerProductVerifier.sol\";\r\nimport \"./alt_bn128.sol\";\r\n\r\ncontract RangeProofVerifier {\r\n    using alt_bn128 for uint256;\r\n    using alt_bn128 for alt_bn128.G1Point;\r\n\r\n    uint256 public constant m = 4;\r\n    uint256 public constant n = 2;\r\n\r\n    alt_bn128.G1Point[m] public gs;\r\n    alt_bn128.G1Point[m] public hs;\r\n    alt_bn128.G1Point public peddersenBaseG;\r\n    alt_bn128.G1Point public peddersenBaseH;\r\n\r\n    uint256[m] internal twos = powers(2);\r\n\r\n    EfficientInnerProductVerifier public ipVerifier;\r\n\r\n    function RangeProofVerifier(\r\n        uint256[4] coords, // [peddersenBaseG_x, peddersenBaseG_y, peddersenBaseH_x, peddersenBaseH_y]\r\n        uint256[2 * m] gs_coords,\r\n        uint256[2 * m] hs_coords,\r\n        EfficientInnerProductVerifier _ipVerifier\r\n    ) public {\r\n        peddersenBaseG = alt_bn128.G1Point(coords[0], coords[1]);\r\n        peddersenBaseH = alt_bn128.G1Point(coords[2], coords[3]);\r\n        for (uint8 i = 0; i < m; i++) {\r\n            gs[i] = alt_bn128.G1Point(gs_coords[i], gs_coords[m + i]);\r\n            hs[i] = alt_bn128.G1Point(hs_coords[i], hs_coords[m + i]);\r\n        }\r\n        ipVerifier = _ipVerifier;\r\n    }\r\n\r\n    function verify(\r\n        uint256[10] coords, // [input_x, input_y, A_x, A_y, S_x, S_y, commits[0]_x, commits[0]_y, commits[1]_x, commits[1]_y]\r\n        uint256[5] scalars, // [tauX, mu, t, a, b]\r\n        uint256[] ls_coords, // 2 * n\r\n        uint256[] rs_coords  // 2 * n\r\n    ) external view returns (bool) {\r\n        RangeProof memory rangeProof;\r\n        alt_bn128.G1Point memory input = alt_bn128.G1Point(coords[0], coords[1]);\r\n        rangeProof.A = alt_bn128.G1Point(coords[2], coords[3]);\r\n        rangeProof.S = alt_bn128.G1Point(coords[4], coords[5]);\r\n        rangeProof.commits = [alt_bn128.G1Point(coords[6], coords[7]), alt_bn128.G1Point(coords[8], coords[9])];\r\n        rangeProof.tauX = scalars[0];\r\n        rangeProof.mu = scalars[1];\r\n        rangeProof.t = scalars[2];\r\n        InnerProductProof memory ipProof;\r\n        rangeProof.ipProof = ipProof;\r\n        for (uint8 i = 0; i < n; i++) {\r\n            ipProof.ls[i] = alt_bn128.G1Point(ls_coords[i], ls_coords[n + i]);\r\n            ipProof.rs[i] = alt_bn128.G1Point(rs_coords[i], rs_coords[n + i]);\r\n        }\r\n        ipProof.a = scalars[3];\r\n        ipProof.b = scalars[4];\r\n        return verifyInternal(input, rangeProof);\r\n    }\r\n\r\n    struct RangeProof {\r\n        alt_bn128.G1Point A;\r\n        alt_bn128.G1Point S;\r\n        alt_bn128.G1Point[2] commits;\r\n        uint256 tauX;\r\n        uint256 mu;\r\n        uint256 t;\r\n        InnerProductProof ipProof;\r\n    }\r\n\r\n    struct InnerProductProof {\r\n        alt_bn128.G1Point[n] ls;\r\n        alt_bn128.G1Point[n] rs;\r\n        uint256 a;\r\n        uint256 b;\r\n    }\r\n\r\n    event Proof(uint256 x, uint256 y);\r\n\r\n    struct Board {\r\n        uint256 y;\r\n        uint256[m] ys;\r\n        uint256 z;\r\n        uint256 zSquared;\r\n        uint256 zCubed;\r\n        uint256[m] twoTimesZSquared;\r\n        uint256 x;\r\n        alt_bn128.G1Point lhs;\r\n        uint256 k;\r\n        alt_bn128.G1Point rhs;\r\n        uint256 uChallenge;\r\n        alt_bn128.G1Point u;\r\n        alt_bn128.G1Point P;\r\n    }\r\n\r\n    function verifyInternal(\r\n        alt_bn128.G1Point input,\r\n        RangeProof proof\r\n    ) internal view returns (bool) {\r\n        Board memory b;\r\n        b.y = uint256(keccak256(input.X, input.Y, proof.A.X, proof.A.Y, proof.S.X, proof.S.Y)).mod();\r\n        b.ys = powers(b.y);\r\n        b.z = uint256(keccak256(b.y)).mod();\r\n        b.zSquared = b.z.mul(b.z);\r\n        b.zCubed = b.zSquared.mul(b.z);\r\n        b.twoTimesZSquared = times(twos, b.zSquared);\r\n        b.x = uint256(keccak256(proof.commits[0].X, proof.commits[0].Y, proof.commits[1].X, proof.commits[1].Y)).mod();\r\n        b.lhs = peddersenBaseG.mul(proof.t).add(peddersenBaseH.mul(proof.tauX));\r\n        b.k = sumScalars(b.ys).mul(b.z.sub(b.zSquared)).sub(b.zCubed.mul(2 ** m).sub(b.zCubed));\r\n        b.rhs = proof.commits[0].mul(b.x).add(proof.commits[1].mul(b.x.mul(b.x)));\r\n        b.rhs = b.rhs.add(input.mul(b.zSquared));\r\n        b.rhs = b.rhs.add(peddersenBaseG.mul(b.k));\r\n        if (!b.rhs.eq(b.lhs)) {\r\n            return false;\r\n        }\r\n        b.uChallenge = uint256(keccak256(proof.tauX, proof.mu, proof.t)).mod();\r\n        b.u = peddersenBaseG.mul(b.uChallenge);\r\n        alt_bn128.G1Point[m] memory hPrimes = haddamard_inv(hs, b.ys);\r\n        uint256[m] memory hExp = addVectors(times(b.ys, b.z), b.twoTimesZSquared);\r\n        b.P = proof.A.add(proof.S.mul(b.x));\r\n        b.P = b.P.add(sumPoints(gs).mul(b.z.neg()));\r\n        b.P = b.P.add(commit(hPrimes, hExp));\r\n        b.P = b.P.add(peddersenBaseH.mul(proof.mu).neg());\r\n        b.P = b.P.add(b.u.mul(proof.t));\r\n        return ipVerifier.verifyWithCustomParams(b.P, toXs(proof.ipProof.ls), toYs(proof.ipProof.ls), toXs(proof.ipProof.rs), toYs(proof.ipProof.rs), proof.ipProof.a, proof.ipProof.b, hPrimes, b.u);\r\n    }\r\n\r\n    function addVectors(uint256[m] a, uint256[m] b) internal pure returns (uint256[m] result) {\r\n        for (uint8 i = 0; i < m; i++) {\r\n            result[i] = a[i].add(b[i]);\r\n        }\r\n    }\r\n\r\n    function haddamard_inv(alt_bn128.G1Point[m] ps, uint256[m] ss) internal view returns (alt_bn128.G1Point[m] result) {\r\n        for (uint8 i = 0; i < m; i++) {\r\n            result[i] = ps[i].mul(ss[i].inv());\r\n        }\r\n    }\r\n\r\n    function sumScalars(uint256[m] ys) internal pure returns (uint256 result) {\r\n        for (uint8 i = 0; i < m; i++) {\r\n            result = result.add(ys[i]);\r\n        }\r\n    }\r\n\r\n    function sumPoints(alt_bn128.G1Point[m] ps) internal view returns (alt_bn128.G1Point sum) {\r\n        sum = ps[0];\r\n        for (uint8 i = 1; i < m; i++) {\r\n            sum = sum.add(ps[i]);\r\n        }\r\n    }\r\n\r\n    function commit(alt_bn128.G1Point[m] ps, uint256[m] ss) internal view returns (alt_bn128.G1Point commit) {\r\n        commit = ps[0].mul(ss[0]);\r\n        for (uint8 i = 1; i < m; i++) {\r\n            commit = commit.add(ps[i].mul(ss[i]));\r\n        }\r\n    }\r\n\r\n    function toXs(alt_bn128.G1Point[n] ps) internal pure returns (uint256[n] xs) {\r\n        for (uint8 i = 0; i < n; i++) {\r\n            xs[i] = ps[i].X;\r\n        }\r\n    }\r\n\r\n    function toYs(alt_bn128.G1Point[n] ps) internal pure returns (uint256[n] ys) {\r\n        for (uint8 i = 0; i < n; i++) {\r\n            ys[i] = ps[i].Y;\r\n        }\r\n    }\r\n\r\n    function powers(uint256 base) internal pure returns (uint256[m] powers) {\r\n        powers[0] = 1;\r\n        powers[1] = base;\r\n        for (uint8 i = 2; i < m; i++) {\r\n            powers[i] = powers[i-1].mul(base);\r\n        }\r\n    }\r\n\r\n    function times(uint256[m] v, uint256 x) internal pure returns (uint256[m] result) {\r\n        for (uint8 i = 0; i < m; i++) {\r\n            result[i] = v[i].mul(x);\r\n        }\r\n    }\r\n}\r\n",
  "sourcePath": "D:\\Projects\\Research\\solidity-range-bulletproof-verifier\\contracts\\RangeProofVerifier.sol",
  "compiler": {
    "name": "solc",
    "version": "0.4.19+commit.c4cbbb05.Emscripten.clang"
  },
  "schemaVersion": "1.0.1",
  "updatedAt": "2018-02-15T09:20:00.249Z"
}